{
  "_format": "hh-sol-artifact-1",
  "contractName": "MessagingContractV3Simple",
  "sourceName": "contracts/MessagingContractV3Simple.sol",
  "abi": [
    {
      "inputs": [
        {
          "internalType": "address",
          "name": "_walletContract",
          "type": "address"
        },
        {
          "internalType": "address",
          "name": "_escrowAddress",
          "type": "address"
        },
        {
          "internalType": "uint256",
          "name": "_messageFee",
          "type": "uint256"
        }
      ],
      "stateMutability": "nonpayable",
      "type": "constructor"
    },
    {
      "inputs": [],
      "name": "ContractIsPaused",
      "type": "error"
    },
    {
      "inputs": [],
      "name": "InsufficientBalance",
      "type": "error"
    },
    {
      "inputs": [],
      "name": "InvalidCID",
      "type": "error"
    },
    {
      "inputs": [],
      "name": "InvalidEscrowAddress",
      "type": "error"
    },
    {
      "inputs": [],
      "name": "InvalidReceiver",
      "type": "error"
    },
    {
      "inputs": [],
      "name": "OnlyOwner",
      "type": "error"
    },
    {
      "inputs": [],
      "name": "RateLimitExceeded",
      "type": "error"
    },
    {
      "inputs": [],
      "name": "TransferFailed",
      "type": "error"
    },
    {
      "inputs": [],
      "name": "UserIsBlocked",
      "type": "error"
    },
    {
      "inputs": [],
      "name": "ZeroAddress",
      "type": "error"
    },
    {
      "anonymous": false,
      "inputs": [
        {
          "indexed": false,
          "internalType": "bool",
          "name": "paused",
          "type": "bool"
        }
      ],
      "name": "ContractPaused",
      "type": "event"
    },
    {
      "anonymous": false,
      "inputs": [
        {
          "indexed": false,
          "internalType": "address",
          "name": "oldEscrow",
          "type": "address"
        },
        {
          "indexed": false,
          "internalType": "address",
          "name": "newEscrow",
          "type": "address"
        }
      ],
      "name": "EscrowAddressUpdated",
      "type": "event"
    },
    {
      "anonymous": false,
      "inputs": [
        {
          "indexed": false,
          "internalType": "uint256",
          "name": "oldFee",
          "type": "uint256"
        },
        {
          "indexed": false,
          "internalType": "uint256",
          "name": "newFee",
          "type": "uint256"
        }
      ],
      "name": "MessageFeeUpdated",
      "type": "event"
    },
    {
      "anonymous": false,
      "inputs": [
        {
          "indexed": true,
          "internalType": "uint256",
          "name": "messageId",
          "type": "uint256"
        },
        {
          "indexed": true,
          "internalType": "address",
          "name": "sender",
          "type": "address"
        },
        {
          "indexed": true,
          "internalType": "address",
          "name": "receiver",
          "type": "address"
        },
        {
          "indexed": false,
          "internalType": "string",
          "name": "cid",
          "type": "string"
        },
        {
          "indexed": false,
          "internalType": "uint256",
          "name": "timestamp",
          "type": "uint256"
        },
        {
          "indexed": false,
          "internalType": "uint256",
          "name": "feePaid",
          "type": "uint256"
        }
      ],
      "name": "MessageSent",
      "type": "event"
    },
    {
      "anonymous": false,
      "inputs": [
        {
          "indexed": false,
          "internalType": "uint256",
          "name": "oldLimit",
          "type": "uint256"
        },
        {
          "indexed": false,
          "internalType": "uint256",
          "name": "newLimit",
          "type": "uint256"
        }
      ],
      "name": "RateLimitUpdated",
      "type": "event"
    },
    {
      "anonymous": false,
      "inputs": [
        {
          "indexed": true,
          "internalType": "address",
          "name": "user",
          "type": "address"
        },
        {
          "indexed": false,
          "internalType": "bool",
          "name": "blocked",
          "type": "bool"
        }
      ],
      "name": "UserBlocked",
      "type": "event"
    },
    {
      "inputs": [],
      "name": "RATE_LIMIT_WINDOW",
      "outputs": [
        {
          "internalType": "uint256",
          "name": "",
          "type": "uint256"
        }
      ],
      "stateMutability": "view",
      "type": "function"
    },
    {
      "inputs": [
        {
          "internalType": "address",
          "name": "",
          "type": "address"
        }
      ],
      "name": "blockedUsers",
      "outputs": [
        {
          "internalType": "bool",
          "name": "",
          "type": "bool"
        }
      ],
      "stateMutability": "view",
      "type": "function"
    },
    {
      "inputs": [
        {
          "internalType": "address",
          "name": "user",
          "type": "address"
        }
      ],
      "name": "canSendMessage",
      "outputs": [
        {
          "internalType": "bool",
          "name": "canSend",
          "type": "bool"
        },
        {
          "internalType": "uint8",
          "name": "reason",
          "type": "uint8"
        }
      ],
      "stateMutability": "view",
      "type": "function"
    },
    {
      "inputs": [
        {
          "internalType": "address",
          "name": "",
          "type": "address"
        },
        {
          "internalType": "address",
          "name": "",
          "type": "address"
        },
        {
          "internalType": "uint256",
          "name": "",
          "type": "uint256"
        }
      ],
      "name": "conversationMessages",
      "outputs": [
        {
          "internalType": "uint256",
          "name": "",
          "type": "uint256"
        }
      ],
      "stateMutability": "view",
      "type": "function"
    },
    {
      "inputs": [],
      "name": "escrowAddress",
      "outputs": [
        {
          "internalType": "address",
          "name": "",
          "type": "address"
        }
      ],
      "stateMutability": "view",
      "type": "function"
    },
    {
      "inputs": [],
      "name": "getContractStats",
      "outputs": [
        {
          "internalType": "uint256",
          "name": "totalMessages",
          "type": "uint256"
        },
        {
          "internalType": "uint256",
          "name": "currentFee",
          "type": "uint256"
        },
        {
          "internalType": "address",
          "name": "escrowAddr",
          "type": "address"
        },
        {
          "internalType": "uint256",
          "name": "totalFeesCollected",
          "type": "uint256"
        }
      ],
      "stateMutability": "view",
      "type": "function"
    },
    {
      "inputs": [
        {
          "internalType": "address",
          "name": "user1",
          "type": "address"
        },
        {
          "internalType": "address",
          "name": "user2",
          "type": "address"
        },
        {
          "internalType": "uint256",
          "name": "limit",
          "type": "uint256"
        }
      ],
      "name": "getConversation",
      "outputs": [
        {
          "internalType": "uint256[]",
          "name": "messageIds",
          "type": "uint256[]"
        }
      ],
      "stateMutability": "view",
      "type": "function"
    },
    {
      "inputs": [
        {
          "internalType": "address",
          "name": "user",
          "type": "address"
        },
        {
          "internalType": "uint256",
          "name": "count",
          "type": "uint256"
        },
        {
          "internalType": "bool",
          "name": "sent",
          "type": "bool"
        }
      ],
      "name": "getLatestMessages",
      "outputs": [
        {
          "components": [
            {
              "internalType": "address",
              "name": "sender",
              "type": "address"
            },
            {
              "internalType": "address",
              "name": "receiver",
              "type": "address"
            },
            {
              "internalType": "string",
              "name": "cid",
              "type": "string"
            },
            {
              "internalType": "uint256",
              "name": "timestamp",
              "type": "uint256"
            }
          ],
          "internalType": "struct MessagingContractV3Simple.Message[]",
          "name": "latestMessages",
          "type": "tuple[]"
        }
      ],
      "stateMutability": "view",
      "type": "function"
    },
    {
      "inputs": [
        {
          "internalType": "uint256",
          "name": "messageId",
          "type": "uint256"
        }
      ],
      "name": "getMessage",
      "outputs": [
        {
          "components": [
            {
              "internalType": "address",
              "name": "sender",
              "type": "address"
            },
            {
              "internalType": "address",
              "name": "receiver",
              "type": "address"
            },
            {
              "internalType": "string",
              "name": "cid",
              "type": "string"
            },
            {
              "internalType": "uint256",
              "name": "timestamp",
              "type": "uint256"
            }
          ],
          "internalType": "struct MessagingContractV3Simple.Message",
          "name": "message",
          "type": "tuple"
        }
      ],
      "stateMutability": "view",
      "type": "function"
    },
    {
      "inputs": [
        {
          "internalType": "address",
          "name": "user",
          "type": "address"
        },
        {
          "internalType": "bool",
          "name": "sent",
          "type": "bool"
        }
      ],
      "name": "getMessages",
      "outputs": [
        {
          "internalType": "uint256[]",
          "name": "messageIds",
          "type": "uint256[]"
        }
      ],
      "stateMutability": "view",
      "type": "function"
    },
    {
      "inputs": [
        {
          "internalType": "address",
          "name": "",
          "type": "address"
        }
      ],
      "name": "lastMessageTime",
      "outputs": [
        {
          "internalType": "uint256",
          "name": "",
          "type": "uint256"
        }
      ],
      "stateMutability": "view",
      "type": "function"
    },
    {
      "inputs": [],
      "name": "maxMessagesPerHour",
      "outputs": [
        {
          "internalType": "uint256",
          "name": "",
          "type": "uint256"
        }
      ],
      "stateMutability": "view",
      "type": "function"
    },
    {
      "inputs": [
        {
          "internalType": "address",
          "name": "",
          "type": "address"
        }
      ],
      "name": "messageCount",
      "outputs": [
        {
          "internalType": "uint256",
          "name": "",
          "type": "uint256"
        }
      ],
      "stateMutability": "view",
      "type": "function"
    },
    {
      "inputs": [],
      "name": "messageCounter",
      "outputs": [
        {
          "internalType": "uint256",
          "name": "",
          "type": "uint256"
        }
      ],
      "stateMutability": "view",
      "type": "function"
    },
    {
      "inputs": [],
      "name": "messageFee",
      "outputs": [
        {
          "internalType": "uint256",
          "name": "",
          "type": "uint256"
        }
      ],
      "stateMutability": "view",
      "type": "function"
    },
    {
      "inputs": [
        {
          "internalType": "uint256",
          "name": "",
          "type": "uint256"
        }
      ],
      "name": "messages",
      "outputs": [
        {
          "internalType": "address",
          "name": "sender",
          "type": "address"
        },
        {
          "internalType": "address",
          "name": "receiver",
          "type": "address"
        },
        {
          "internalType": "string",
          "name": "cid",
          "type": "string"
        },
        {
          "internalType": "uint256",
          "name": "timestamp",
          "type": "uint256"
        }
      ],
      "stateMutability": "view",
      "type": "function"
    },
    {
      "inputs": [],
      "name": "owner",
      "outputs": [
        {
          "internalType": "address",
          "name": "",
          "type": "address"
        }
      ],
      "stateMutability": "view",
      "type": "function"
    },
    {
      "inputs": [],
      "name": "paused",
      "outputs": [
        {
          "internalType": "bool",
          "name": "",
          "type": "bool"
        }
      ],
      "stateMutability": "view",
      "type": "function"
    },
    {
      "inputs": [
        {
          "internalType": "address",
          "name": "receiver",
          "type": "address"
        },
        {
          "internalType": "string",
          "name": "cid",
          "type": "string"
        }
      ],
      "name": "sendMessage",
      "outputs": [
        {
          "internalType": "uint256",
          "name": "messageId",
          "type": "uint256"
        }
      ],
      "stateMutability": "nonpayable",
      "type": "function"
    },
    {
      "inputs": [
        {
          "internalType": "address",
          "name": "newEscrow",
          "type": "address"
        }
      ],
      "name": "setEscrowAddress",
      "outputs": [],
      "stateMutability": "nonpayable",
      "type": "function"
    },
    {
      "inputs": [
        {
          "internalType": "uint256",
          "name": "newFee",
          "type": "uint256"
        }
      ],
      "name": "setMessageFee",
      "outputs": [],
      "stateMutability": "nonpayable",
      "type": "function"
    },
    {
      "inputs": [
        {
          "internalType": "bool",
          "name": "_paused",
          "type": "bool"
        }
      ],
      "name": "setPaused",
      "outputs": [],
      "stateMutability": "nonpayable",
      "type": "function"
    },
    {
      "inputs": [
        {
          "internalType": "uint256",
          "name": "newLimit",
          "type": "uint256"
        }
      ],
      "name": "setRateLimit",
      "outputs": [],
      "stateMutability": "nonpayable",
      "type": "function"
    },
    {
      "inputs": [
        {
          "internalType": "address",
          "name": "user",
          "type": "address"
        },
        {
          "internalType": "bool",
          "name": "blocked",
          "type": "bool"
        }
      ],
      "name": "setUserBlocked",
      "outputs": [],
      "stateMutability": "nonpayable",
      "type": "function"
    },
    {
      "inputs": [
        {
          "internalType": "address",
          "name": "",
          "type": "address"
        },
        {
          "internalType": "uint256",
          "name": "",
          "type": "uint256"
        }
      ],
      "name": "userReceivedMessages",
      "outputs": [
        {
          "internalType": "uint256",
          "name": "",
          "type": "uint256"
        }
      ],
      "stateMutability": "view",
      "type": "function"
    },
    {
      "inputs": [
        {
          "internalType": "address",
          "name": "",
          "type": "address"
        },
        {
          "internalType": "uint256",
          "name": "",
          "type": "uint256"
        }
      ],
      "name": "userSentMessages",
      "outputs": [
        {
          "internalType": "uint256",
          "name": "",
          "type": "uint256"
        }
      ],
      "stateMutability": "view",
      "type": "function"
    },
    {
      "inputs": [],
      "name": "walletContract",
      "outputs": [
        {
          "internalType": "contract IUserWalletContract",
          "name": "",
          "type": "address"
        }
      ],
      "stateMutability": "view",
      "type": "function"
    },
    {
      "stateMutability": "payable",
      "type": "receive"
    }
  ],
  "bytecode": "0x60a06040526064600655600c805460ff1916905534801561001f57600080fd5b50604051611d35380380611d3583398101604081905261003e916100e9565b6001600160a01b0383166100655760405163d92e233d60e01b815260040160405180910390fd5b6001600160a01b03821661008c57604051637398f3f360e11b815260040160405180910390fd5b6001600160a01b03928316608052600080546001600160a01b0319908116331782556001805494909516931692909217909255600291909155600355610125565b80516001600160a01b03811681146100e457600080fd5b919050565b6000806000606084860312156100fe57600080fd5b610107846100cd565b9250610115602085016100cd565b9150604084015190509250925092565b608051611be0610155600039600081816105a101528181610d91015281816111b601526112690152611be06000f3fe6080604052600436106101a05760003560e01c8063692f186c116100ec578063c287184e1161008a578063d0ed5c2f11610064578063d0ed5c2f1461058f578063ddeb63b5146105c3578063de6f24bb146105e3578063dfe6b5d61461060357600080fd5b8063c287184e14610516578063c78afa7614610536578063d08261bb1461056f57600080fd5b80638da5cb5b116100c65780638da5cb5b146104895780639ada4cb9146104a95780639e58aeaa146104c9578063b410393b146104e957600080fd5b8063692f186c146104195780637130dfc91461044657806386f79edb1461045c57600080fd5b80632a8203c9116101595780633af2d5e7116101335780633af2d5e7146103895780633ca1c8db146103c9578063529c7588146103e95780635c975abb146103ff57600080fd5b80632a8203c91461032657806338e0442a1461034657806339d524181461035c57600080fd5b80630d5defa4146102285780630d80fefd1461026557806316c38b3c146102955780631a90a219146102b557806323aa2a9d146102d957806327a92f05146102f957600080fd5b36610223573415610221576001546040516000916001600160a01b03169034908381818185875af1925050503d80600081146101f8576040519150601f19603f3d011682016040523d82523d6000602084013e6101fd565b606091505b505090508061021f576040516312171d8360e31b815260040160405180910390fd5b505b005b600080fd5b34801561023457600080fd5b50600154610248906001600160a01b031681565b6040516001600160a01b0390911681526020015b60405180910390f35b34801561027157600080fd5b506102856102803660046115d7565b610647565b60405161025c9493929190611636565b3480156102a157600080fd5b506102216102b0366004611684565b610705565b3480156102c157600080fd5b506102cb60025481565b60405190815260200161025c565b3480156102e557600080fd5b506102216102f43660046115d7565b610777565b34801561030557600080fd5b506103196103143660046116bd565b6107e8565b60405161025c919061174a565b34801561033257600080fd5b506102216103413660046117af565b610a3d565b34801561035257600080fd5b506102cb60065481565b34801561036857600080fd5b506102cb6103773660046117e6565b60046020526000908152604090205481565b34801561039557600080fd5b506103b96103a43660046117e6565b600b6020526000908152604090205460ff1681565b604051901515815260200161025c565b3480156103d557600080fd5b506102cb6103e4366004611801565b610ac7565b3480156103f557600080fd5b506102cb60035481565b34801561040b57600080fd5b50600c546103b99060ff1681565b34801561042557600080fd5b506104396104343660046117af565b610af8565b60405161025c919061182b565b34801561045257600080fd5b506102cb610e1081565b34801561046857600080fd5b5061047c6104773660046115d7565b610b8d565b60405161025c919061186e565b34801561049557600080fd5b50600054610248906001600160a01b031681565b3480156104b557600080fd5b506102cb6104c4366004611881565b610c75565b3480156104d557600080fd5b506102cb6104e4366004611801565b610cb3565b3480156104f557600080fd5b506102cb6105043660046117e6565b60056020526000908152604090205481565b34801561052257600080fd5b506102216105313660046115d7565b610ccf565b34801561054257600080fd5b506105566105513660046117e6565b610d38565b60408051921515835260ff90911660208301520161025c565b34801561057b57600080fd5b5061043961058a366004611881565b610e74565b34801561059b57600080fd5b506102487f000000000000000000000000000000000000000000000000000000000000000081565b3480156105cf57600080fd5b506102216105de3660046117e6565b610fba565b3480156105ef57600080fd5b506102cb6105fe3660046118d4565b611066565b34801561060f57600080fd5b50610618611568565b60405161025c949392919093845260208401929092526001600160a01b03166040830152606082015260800190565b6007602052600090815260409020805460018201546002830180546001600160a01b0393841694929093169261067c9061199e565b80601f01602080910402602001604051908101604052809291908181526020018280546106a89061199e565b80156106f55780601f106106ca576101008083540402835291602001916106f5565b820191906000526020600020905b8154815290600101906020018083116106d857829003601f168201915b5050505050908060030154905084565b6000546001600160a01b0316331461073057604051635fc483c560e01b815260040160405180910390fd5b600c805460ff19168215159081179091556040519081527f752d7e161ff5146f80e3820893176eb40532811e5e20400dfdde57455213706a9060200160405180910390a150565b6000546001600160a01b031633146107a257604051635fc483c560e01b815260040160405180910390fd5b600280549082905560408051828152602081018490527ff8de0c222317f1c7cca7a70a6499138fbf1811c0dada7926c5af1ae368a6b5e791015b60405180910390a15050565b606060008261080e576001600160a01b0385166000908152600960205260409020610827565b6001600160a01b03851660009081526008602052604090205b80549091501580610836575083155b1561087557604080516000808252602082019092529061086c565b61085961159d565b8152602001906001900390816108515790505b50915050610a36565b80546000908510610887576000610894565b81546108949086906119ee565b82549091506000906108a79083906119ee565b90508067ffffffffffffffff8111156108c2576108c26118be565b6040519080825280602002602001820160405280156108fb57816020015b6108e861159d565b8152602001906001900390816108e05790505b50935060005b81811015610a31576000846109168386611a01565b8154811061092657610926611a14565b600091825260208083209091015480835260078252604092839020835160808101855281546001600160a01b03908116825260018301541693810193909352600281018054929550929390929084019161097f9061199e565b80601f01602080910402602001604051908101604052809291908181526020018280546109ab9061199e565b80156109f85780601f106109cd576101008083540402835291602001916109f8565b820191906000526020600020905b8154815290600101906020018083116109db57829003601f168201915b50505050508152602001600382015481525050868381518110610a1d57610a1d611a14565b602090810291909101015250600101610901565b505050505b9392505050565b6000546001600160a01b03163314610a6857604051635fc483c560e01b815260040160405180910390fd5b6001600160a01b0382166000818152600b6020908152604091829020805460ff191685151590811790915591519182527f45de6f168269375e485fd7cb18230a971915dbb24e99d3a5e33e5c0d4cba2eed910160405180910390a25050565b60096020528160005260406000208181548110610ae357600080fd5b90600052602060002001600091509150505481565b606081610b1c576001600160a01b0383166000908152600960205260409020610b35565b6001600160a01b03831660009081526008602052604090205b805480602002602001604051908101604052809291908181526020018280548015610b7f57602002820191906000526020600020905b815481526020019060010190808311610b6b575b505050505090505b92915050565b610b9561159d565b600082815260076020908152604091829020825160808101845281546001600160a01b039081168252600183015416928101929092526002810180549293919291840191610be29061199e565b80601f0160208091040260200160405190810160405280929190818152602001828054610c0e9061199e565b8015610c5b5780601f10610c3057610100808354040283529160200191610c5b565b820191906000526020600020905b815481529060010190602001808311610c3e57829003601f168201915b505050505081526020016003820154815250509050919050565b600a6020528260005260406000206020528160005260406000208181548110610c9d57600080fd5b9060005260206000200160009250925050505481565b60086020528160005260406000208181548110610ae357600080fd5b6000546001600160a01b03163314610cfa57604051635fc483c560e01b815260040160405180910390fd5b600680549082905560408051828152602081018490527fdb321c9770a010d58b4c320a42b8c5afe7b2e10ac9de40fdf7e35a07214f25f491016107dc565b6001600160a01b0381166000908152600b6020526040812054819060ff1615610d675750600092600392509050565b60025460405163d2b11b1f60e01b81526001600160a01b03858116600483015260248201929092527f00000000000000000000000000000000000000000000000000000000000000009091169063d2b11b1f90604401602060405180830381865afa158015610dda573d6000803e3d6000fd5b505050506040513d601f19601f82011682018060405250810190610dfe9190611a2a565b610e0e5750600092600192509050565b6001600160a01b038316600090815260056020526040902054610e1090610e3590426119ee565b1015610e68576006546001600160a01b03841660009081526004602052604090205410610e685750600092600292509050565b50600192600092509050565b6001600160a01b038084166000908152600a60209081526040808320938616835292905220606090821580610eaa575080548310155b15610f0357805460408051602080840282018101909252828152918391830182828015610ef657602002820191906000526020600020905b815481526020019060010190808311610ee2575b5050505050915050610a36565b8054600090610f139085906119ee565b90508367ffffffffffffffff811115610f2e57610f2e6118be565b604051908082528060200260200182016040528015610f57578160200160208202803683370190505b50925060005b84811015610fb05782610f708284611a01565b81548110610f8057610f80611a14565b9060005260206000200154848281518110610f9d57610f9d611a14565b6020908102919091010152600101610f5d565b5050509392505050565b6000546001600160a01b03163314610fe557604051635fc483c560e01b815260040160405180910390fd5b6001600160a01b03811661100c57604051637398f3f360e11b815260040160405180910390fd5b600180546001600160a01b038381166001600160a01b031983168117909355604080519190921680825260208201939093527f5538e05a245b6eef621a3d55d45091e48590a4cb13fd37b53b0c9d0dfb7cd4a491016107dc565b600c5460009060ff161561108d576040516306d39fcd60e41b815260040160405180910390fd5b336000908152600b602052604090205460ff16156110be5760405163c000e8e560e01b815260040160405180910390fd5b826001600160a01b03811615806110dd57506001600160a01b03811633145b156110fb57604051631e4ec46b60e01b815260040160405180910390fd5b8280516000148061110d575060c88151115b1561112b57604051633875d9bd60e21b815260040160405180910390fd5b33600090815260056020526040902054610e109061114990426119ee565b10156111855760065433600090815260046020526040902054106111805760405163a74c1c5f60e01b815260040160405180910390fd5b611196565b336000908152600460205260408120555b60025460405163d2b11b1f60e01b815233600482015260248101919091527f00000000000000000000000000000000000000000000000000000000000000006001600160a01b03169063d2b11b1f90604401602060405180830381865afa158015611205573d6000803e3d6000fd5b505050506040513d601f19601f820116820180604052508101906112299190611a2a565b61124657604051631e9acf1760e31b815260040160405180910390fd5b60025460405163af7d6ca360e01b815233600482015260248101919091526000907f00000000000000000000000000000000000000000000000000000000000000006001600160a01b03169063af7d6ca3906044016020604051808303816000875af11580156112ba573d6000803e3d6000fd5b505050506040513d601f19601f820116820180604052508101906112de9190611a2a565b9050806112fe57604051631e9acf1760e31b815260040160405180910390fd5b6002541561137e576001546002546040516000926001600160a01b031691908381818185875af1925050503d8060008114611355576040519150601f19603f3d011682016040523d82523d6000602084013e61135a565b606091505b505090508061137c576040516312171d8360e31b815260040160405180910390fd5b505b6003805490600061138e83611a47565b9091555050600354604080516080810182523381526001600160a01b0389811660208084019182528385018b815242606086015260008781526007909252949020835181549084166001600160a01b0319918216178255915160018201805491909416921691909117909155915192965091600282019061140f9082611aaf565b5060609190910151600390910155336000818152600860209081526040808320805460018181018355918552838520018990556001600160a01b038b168085526009845282852080548084018255908652848620018a9055858552600a808552838620828752855283862080548085018255908752858720018b90559085528352818420858552835281842080549182018155845282842001889055928252600590522054610e10906114c290426119ee565b106114df5733600090815260046020526040902060019055611500565b3360009081526004602052604081208054916114fa83611a47565b91905055505b3360008181526005602052604090819020429081905560025491516001600160a01b038a16939288927f2496f0507ff8d244c99d8ebeaba597ee0c2cd7634ccd4845e2d4eea5a0f80b2092611557928c9291611b6e565b60405180910390a450505092915050565b60035460025460015460009283928392839291906001600160a01b031661158f8284611b93565b935093509350935090919293565b604051806080016040528060006001600160a01b0316815260200160006001600160a01b0316815260200160608152602001600081525090565b6000602082840312156115e957600080fd5b5035919050565b6000815180845260005b81811015611616576020818501810151868301820152016115fa565b506000602082860101526020601f19601f83011685010191505092915050565b6001600160a01b03858116825284166020820152608060408201819052600090611662908301856115f0565b905082606083015295945050505050565b801515811461168157600080fd5b50565b60006020828403121561169657600080fd5b8135610a3681611673565b80356001600160a01b03811681146116b857600080fd5b919050565b6000806000606084860312156116d257600080fd5b6116db846116a1565b92506020840135915060408401356116f281611673565b809150509250925092565b60018060a01b03815116825260018060a01b036020820151166020830152600060408201516080604085015261173660808501826115f0565b606093840151949093019390935250919050565b6000602082016020835280845180835260408501915060408160051b86010192506020860160005b828110156117a357603f1987860301845261178e8583516116fd565b94506020938401939190910190600101611772565b50929695505050505050565b600080604083850312156117c257600080fd5b6117cb836116a1565b915060208301356117db81611673565b809150509250929050565b6000602082840312156117f857600080fd5b610a36826116a1565b6000806040838503121561181457600080fd5b61181d836116a1565b946020939093013593505050565b602080825282518282018190526000918401906040840190835b81811015611863578351835260209384019390920191600101611845565b509095945050505050565b602081526000610a3660208301846116fd565b60008060006060848603121561189657600080fd5b61189f846116a1565b92506118ad602085016116a1565b929592945050506040919091013590565b634e487b7160e01b600052604160045260246000fd5b600080604083850312156118e757600080fd5b6118f0836116a1565b9150602083013567ffffffffffffffff81111561190c57600080fd5b8301601f8101851361191d57600080fd5b803567ffffffffffffffff811115611937576119376118be565b604051601f8201601f19908116603f0116810167ffffffffffffffff81118282101715611966576119666118be565b60405281815282820160200187101561197e57600080fd5b816020840160208301376000602083830101528093505050509250929050565b600181811c908216806119b257607f821691505b6020821081036119d257634e487b7160e01b600052602260045260246000fd5b50919050565b634e487b7160e01b600052601160045260246000fd5b81810381811115610b8757610b876119d8565b80820180821115610b8757610b876119d8565b634e487b7160e01b600052603260045260246000fd5b600060208284031215611a3c57600080fd5b8151610a3681611673565b600060018201611a5957611a596119d8565b5060010190565b601f821115611aaa57806000526020600020601f840160051c81016020851015611a875750805b601f840160051c820191505b81811015611aa75760008155600101611a93565b50505b505050565b815167ffffffffffffffff811115611ac957611ac96118be565b611add81611ad7845461199e565b84611a60565b6020601f821160018114611b115760008315611af95750848201515b600019600385901b1c1916600184901b178455611aa7565b600084815260208120601f198516915b82811015611b415787850151825560209485019460019092019101611b21565b5084821015611b5f5786840151600019600387901b60f8161c191681555b50505050600190811b01905550565b606081526000611b8160608301866115f0565b60208301949094525060400152919050565b8082028115828204841417610b8757610b876119d856fea2646970667358221220586aa650098bcf8f3a543edb6a8096828591d5c1b781ce822b21338659bdf81a64736f6c634300081c0033",
  "linkReferences": {},
  "deployedLinkReferences": {}
}