{
  "_format": "hh-sol-artifact-1",
  "contractName": "UserWalletContract",
  "sourceName": "contracts/UserWalletContractSimple.sol",
  "abi": [
    {
      "inputs": [],
      "stateMutability": "nonpayable",
      "type": "constructor"
    },
    {
      "inputs": [],
      "name": "BelowMinimumDeposit",
      "type": "error"
    },
    {
      "inputs": [],
      "name": "InsufficientBalance",
      "type": "error"
    },
    {
      "inputs": [],
      "name": "InvalidAmount",
      "type": "error"
    },
    {
      "inputs": [],
      "name": "OnlyOwner",
      "type": "error"
    },
    {
      "inputs": [],
      "name": "TransferFailed",
      "type": "error"
    },
    {
      "inputs": [],
      "name": "UnauthorizedSpender",
      "type": "error"
    },
    {
      "inputs": [],
      "name": "ZeroAddress",
      "type": "error"
    },
    {
      "anonymous": false,
      "inputs": [
        {
          "indexed": true,
          "internalType": "address",
          "name": "user",
          "type": "address"
        },
        {
          "indexed": false,
          "internalType": "uint256",
          "name": "amount",
          "type": "uint256"
        },
        {
          "indexed": false,
          "internalType": "uint256",
          "name": "newBalance",
          "type": "uint256"
        }
      ],
      "name": "Deposited",
      "type": "event"
    },
    {
      "anonymous": false,
      "inputs": [
        {
          "indexed": true,
          "internalType": "address",
          "name": "spender",
          "type": "address"
        },
        {
          "indexed": false,
          "internalType": "bool",
          "name": "authorized",
          "type": "bool"
        }
      ],
      "name": "SpenderAuthorized",
      "type": "event"
    },
    {
      "anonymous": false,
      "inputs": [
        {
          "indexed": true,
          "internalType": "address",
          "name": "user",
          "type": "address"
        },
        {
          "indexed": true,
          "internalType": "address",
          "name": "spender",
          "type": "address"
        },
        {
          "indexed": false,
          "internalType": "uint256",
          "name": "amount",
          "type": "uint256"
        },
        {
          "indexed": false,
          "internalType": "uint256",
          "name": "remainingBalance",
          "type": "uint256"
        }
      ],
      "name": "Spent",
      "type": "event"
    },
    {
      "anonymous": false,
      "inputs": [
        {
          "indexed": true,
          "internalType": "address",
          "name": "user",
          "type": "address"
        },
        {
          "indexed": false,
          "internalType": "uint256",
          "name": "amount",
          "type": "uint256"
        },
        {
          "indexed": false,
          "internalType": "uint256",
          "name": "remainingBalance",
          "type": "uint256"
        }
      ],
      "name": "Withdrawn",
      "type": "event"
    },
    {
      "inputs": [],
      "name": "MINIMUM_DEPOSIT",
      "outputs": [
        {
          "internalType": "uint256",
          "name": "",
          "type": "uint256"
        }
      ],
      "stateMutability": "view",
      "type": "function"
    },
    {
      "inputs": [
        {
          "internalType": "address",
          "name": "user",
          "type": "address"
        },
        {
          "internalType": "uint256",
          "name": "amount",
          "type": "uint256"
        }
      ],
      "name": "canAfford",
      "outputs": [
        {
          "internalType": "bool",
          "name": "affordable",
          "type": "bool"
        }
      ],
      "stateMutability": "view",
      "type": "function"
    },
    {
      "inputs": [
        {
          "internalType": "address",
          "name": "user",
          "type": "address"
        }
      ],
      "name": "checkBalance",
      "outputs": [
        {
          "internalType": "uint256",
          "name": "balance",
          "type": "uint256"
        }
      ],
      "stateMutability": "view",
      "type": "function"
    },
    {
      "inputs": [],
      "name": "deposit",
      "outputs": [],
      "stateMutability": "payable",
      "type": "function"
    },
    {
      "inputs": [],
      "name": "getStats",
      "outputs": [
        {
          "internalType": "uint256",
          "name": "totalDep",
          "type": "uint256"
        },
        {
          "internalType": "uint256",
          "name": "totalWith",
          "type": "uint256"
        },
        {
          "internalType": "uint256",
          "name": "totalSp",
          "type": "uint256"
        },
        {
          "internalType": "uint256",
          "name": "contractBal",
          "type": "uint256"
        }
      ],
      "stateMutability": "view",
      "type": "function"
    },
    {
      "inputs": [
        {
          "internalType": "address",
          "name": "spender",
          "type": "address"
        }
      ],
      "name": "isAuthorizedSpender",
      "outputs": [
        {
          "internalType": "bool",
          "name": "isAuthorized",
          "type": "bool"
        }
      ],
      "stateMutability": "view",
      "type": "function"
    },
    {
      "inputs": [],
      "name": "owner",
      "outputs": [
        {
          "internalType": "address",
          "name": "",
          "type": "address"
        }
      ],
      "stateMutability": "view",
      "type": "function"
    },
    {
      "inputs": [
        {
          "internalType": "address",
          "name": "spender",
          "type": "address"
        },
        {
          "internalType": "bool",
          "name": "authorized",
          "type": "bool"
        }
      ],
      "name": "setAuthorizedSpender",
      "outputs": [],
      "stateMutability": "nonpayable",
      "type": "function"
    },
    {
      "inputs": [
        {
          "internalType": "address",
          "name": "from",
          "type": "address"
        },
        {
          "internalType": "uint256",
          "name": "amount",
          "type": "uint256"
        }
      ],
      "name": "spend",
      "outputs": [
        {
          "internalType": "bool",
          "name": "success",
          "type": "bool"
        }
      ],
      "stateMutability": "nonpayable",
      "type": "function"
    },
    {
      "inputs": [],
      "name": "totalDeposits",
      "outputs": [
        {
          "internalType": "uint256",
          "name": "",
          "type": "uint256"
        }
      ],
      "stateMutability": "view",
      "type": "function"
    },
    {
      "inputs": [],
      "name": "totalSpent",
      "outputs": [
        {
          "internalType": "uint256",
          "name": "",
          "type": "uint256"
        }
      ],
      "stateMutability": "view",
      "type": "function"
    },
    {
      "inputs": [],
      "name": "totalWithdrawals",
      "outputs": [
        {
          "internalType": "uint256",
          "name": "",
          "type": "uint256"
        }
      ],
      "stateMutability": "view",
      "type": "function"
    },
    {
      "inputs": [
        {
          "internalType": "uint256",
          "name": "amount",
          "type": "uint256"
        }
      ],
      "name": "withdraw",
      "outputs": [],
      "stateMutability": "nonpayable",
      "type": "function"
    },
    {
      "stateMutability": "payable",
      "type": "receive"
    }
  ],
  "bytecode": "0x6080604052348015600f57600080fd5b50600080546001600160a01b03191633179055610899806100316000396000f3fe6080604052600436106100c65760003560e01c80638da5cb5b1161007f578063d0e30db011610059578063d0e30db0146102f3578063d2b11b1f146102fb578063f19451d81461031b578063fb346eab1461033657600080fd5b80638da5cb5b14610264578063af7d6ca31461029c578063c59d4847146102bc57600080fd5b8063042f1ba714610166578063256a87f3146101865780632e1a7d4d146101d45780635f515226146101f457806360464627146102385780637d8820971461024e57600080fd5b3661016157662386f26fc10000341061015f5733600090815260016020526040812080543492906100f8908490610780565b9250508190555034600360008282546101119190610780565b909155505033600081815260016020908152604091829020548251348152918201527f73a19dd210f1a7f902193214c0ee91dd35ee5b4d920cba8d519eca65a7b488ca910160405180910390a25b005b600080fd5b34801561017257600080fd5b5061015f6101813660046107af565b61034c565b34801561019257600080fd5b506101bf6101a13660046107eb565b6001600160a01b031660009081526002602052604090205460ff1690565b60405190151581526020015b60405180910390f35b3480156101e057600080fd5b5061015f6101ef36600461080d565b6103fd565b34801561020057600080fd5b5061022a61020f3660046107eb565b6001600160a01b031660009081526001602052604090205490565b6040519081526020016101cb565b34801561024457600080fd5b5061022a60045481565b34801561025a57600080fd5b5061022a60035481565b34801561027057600080fd5b50600054610284906001600160a01b031681565b6040516001600160a01b0390911681526020016101cb565b3480156102a857600080fd5b506101bf6102b7366004610826565b610542565b3480156102c857600080fd5b50600354600454600554476040805194855260208501939093529183015260608201526080016101cb565b61015f610698565b34801561030757600080fd5b506101bf610316366004610826565b610747565b34801561032757600080fd5b5061022a662386f26fc1000081565b34801561034257600080fd5b5061022a60055481565b6000546001600160a01b0316331461037757604051635fc483c560e01b815260040160405180910390fd5b6001600160a01b03821661039e5760405163d92e233d60e01b815260040160405180910390fd5b6001600160a01b038216600081815260026020908152604091829020805460ff191685151590811790915591519182527fae147a7c9fb958af671f40fcdd8c9317dd78c17d572aeb8fb41010846c4a45c8910160405180910390a25050565b808060000361041f5760405163162908e360e11b815260040160405180910390fd5b3360009081526001602052604090205482111561044f57604051631e9acf1760e31b815260040160405180910390fd5b336000908152600160205260408120805484929061046e908490610850565b9250508190555081600460008282546104879190610780565b9091555050604051600090339084908381818185875af1925050503d80600081146104ce576040519150601f19603f3d011682016040523d82523d6000602084013e6104d3565b606091505b50509050806104f5576040516312171d8360e31b815260040160405180910390fd5b33600081815260016020908152604091829020548251878152918201527f92ccf450a286a957af52509bc1c9939d1a6a481783e142e41e2499f0bb66ebc6910160405180910390a2505050565b3360009081526002602052604081205460ff16610572576040516320494fd960e01b815260040160405180910390fd5b81806000036105945760405163162908e360e11b815260040160405180910390fd5b6001600160a01b0384166105bb5760405163d92e233d60e01b815260040160405180910390fd5b6001600160a01b0384166000908152600160205260409020548311156105f457604051631e9acf1760e31b815260040160405180910390fd5b6001600160a01b0384166000908152600160205260408120805485929061061c908490610850565b9250508190555082600560008282546106359190610780565b90915550506001600160a01b038416600081815260016020908152604091829020548251878152918201523392917faeffc5ea3d8583ca1274d444d4fa0abe1cac06484d7ab8ad13636382677bcd83910160405180910390a35060019392505050565b662386f26fc100003410156106c057604051632ddf431160e11b815260040160405180910390fd5b33600090815260016020526040812080543492906106df908490610780565b9250508190555034600360008282546106f89190610780565b909155505033600081815260016020908152604091829020548251348152918201527f73a19dd210f1a7f902193214c0ee91dd35ee5b4d920cba8d519eca65a7b488ca910160405180910390a2565b6001600160a01b0382166000908152600160205260409020548111155b92915050565b634e487b7160e01b600052601160045260246000fd5b808201808211156107645761076461076a565b80356001600160a01b03811681146107aa57600080fd5b919050565b600080604083850312156107c257600080fd5b6107cb83610793565b9150602083013580151581146107e057600080fd5b809150509250929050565b6000602082840312156107fd57600080fd5b61080682610793565b9392505050565b60006020828403121561081f57600080fd5b5035919050565b6000806040838503121561083957600080fd5b61084283610793565b946020939093013593505050565b818103818111156107645761076461076a56fea2646970667358221220d1bf3b10f9380e5cd915331beacbdcd6703e8c641d40c320bac97f6f0291d12964736f6c634300081c0033",
  "linkReferences": {},
  "deployedLinkReferences": {}
}